:020000040000FA
:1000000000230020150200001D0200001F02000056
:100010002102000023020000250200000000000071
:1000200000000000000000000000000027020000A7
:1000300029020000000000002B0200002D02000039
:100040002F0200002F0200007D0800002F02000098
:100050002F0200002F0200002F020000C903000041
:1000600055080000690800002F0200002F02000060
:100070002F0200002F0200002F0200002F020000BC
:100080002F0200002F0200002F0200002F020000AC
:100090002F0200002F0200002F0200002F0200009C
:1000A0002F0200002F0200002F0200002F0200008C
:1000B0002F0200002F0200000000000000000000DE
:1000C0002F0200002F0200002F0200002F0200006C
:1000D0002F0200002F0200002F020000000000008D
:1000E0000000000000000000000000000000000010
:1000F0000000000000000000000000000000000000
:1001000000000000000000000000000000000000EF
:1001100000000000000000000000000000000000DF
:1001200000000000000000000000000000000000CF
:1001300000000000000000000000000000000000BF
:1001400000000000000000000000000000000000AF
:10015000000000000000000000000000000000009F
:10016000000000000000000000000000000000008F
:10017000000000000000000000000000000000007F
:10018000000000000000000000000000000000006F
:10019000000000000000000000000000000000005F
:1001A000000000000000000000000000000000004F
:1001B000000000000000000000000000000000003F
:1001C000000000000000000000000000000000002F
:1001D000000000000000000000000000000000001F
:1001E000000000000000000000000000000000000F
:1001F00000000000000000000000000000000000FF
:10020000DFF80CD000F018F800480047350B00006C
:10021000002300200648804706480047FEE7FEE727
:10022000FEE7FEE7FEE7FEE7FEE7FEE7FEE7FEE7A6
:100230004505000001020000064C074D06E0E0689D
:1002400040F0010394E8070098471034AC42F6D31D
:10025000FFF7DAFFB8110000D811000010B500F068
:100260008FF80C2000F01EFD382000F029F80C203B
:1002700000F018FD382000F023F80C2000F012FDEB
:10028000382000F01DF80C2000F00CFD0C2000F0D0
:1002900017F80C2000F006FD062000F011F80C20E5
:1002A00000F000FD012000F00BF80C2000F0FAFC3B
:1002B000802000F005F8BDE810400C2000F0F2BCF2
:1002C00070B505460021122000F0AFFC002113207C
:1002D00000F0ABFC0C2000F0E5FC104E002400BF49
:1002E00005F0010136F8140000F09FFC6D08641C55
:1002F000072CF5DD0C2000F0D5FC0121142000F0C6
:1003000094FC0C2000F0CEFC0021142000F08DFCA9
:10031000BDE870400C2000F0C5BC00003400002097
:1003200070B5054600240121122000F07EFC00215A
:10033000132000F07AFC0C2000F0B4FC0F4E00BF3C
:1003400005F0010136F8140000F06FFC6D08641C24
:10035000072CF5DD0C2000F0A5FC0121142000F095
:1003600064FC0C2000F09EFC0021142000F05DFCD9
:10037000BDE870400C2000F095BC00003400002067
:1003800010B5152000F041FC1F2000F03EFC1E209F
:1003900000F03BFC1D2000F038FC1C2000F035FC78
:1003A0001B2000F032FC1A2000F02FFC192000F076
:1003B0002CFC132000F029FC122000F026FCBDE8E4
:1003C0001040142000F021BC2DE9FE434FF4827848
:1003D000404600F047FC4C4F00254C4C012600B332
:1003E000404600F047FC94F82E0010B194F82F100E
:1003F000D1B18DF80050616801912189ADF80810E4
:10040000E26832B1218B618362602181E56010B1C5
:1004100002E0257400E03E6021686846884784F861
:100420002F5094F82E0060B34FF48077384600F0D8
:1004300019FC30B3384600F01DFC628B94F82D1087
:100440008A420AD9A2EB010080B260832289A2EB22
:100450000000626802EB400005E007D1E06828B1C7
:1004600084F82F60658300F0EBFB04E08A4202D140
:1004700084F82F606583404600F0FCFB2248001D95
:1004800006604FF48877384600F0ECFB48B13846F8
:1004900000F0F0FB257402208DF80000216868460A
:1004A00088474FF48A77384600F0DCFB28B138469D
:1004B00000F0E0FB2574BDE8FE834FF000484FF4E8
:1004C0008C7967691DE000BFB7FA87F028FA00F160
:1004D00009EB80058F43284600F0C4FB88B128460D
:1004E00000F0C8FBA5F58C75E8088DF8040045F30D
:1004F0008000401C8DF800608DF80500216868467A
:100500008847002FE0D1D6E700700040B4020020F9
:100510000B48817929B100218171017A49B100210B
:100520000172817800290AD0017A21B1016A012083
:1005300003E00121F4E78169022000F0D9B9704796
:1005400000000020F0B5B2480023021D0178101D04
:1005500001254FF0805406290BD11678360708D1B3
:100560000678C6F30316032E06D0042E04D0052EFB
:1005700002D0062907D00EE0B4F82463A54FC6F3D5
:1005800004263E6002E01678360704D10678C6F3EA
:100590000316032E02D0062904D00FE09F4F9E4E73
:1005A0007E670EE01678360708D10678C6F3031684
:1005B000032E06D0042E04D0052E02D0062907D023
:1005C0000EE0D4F84462964FC6F342363E6002E035
:1005D0001678360704D10678C6F30316032E02D028
:1005E000062906D011E08F4E376827F080773760F4
:1005F0000EE01678360708D10678C6F30316032EE8
:1006000006D0042E04D0052E02D006290AD011E00F
:100610004FF08046C6F80C31C6F81031804E361FB8
:10062000336002E01678360704D10678C6F3031665
:10063000032E02D0062905D00CE0794F032664373B
:100640003E600AE01678360704D10678C6F3031632
:10065000032E02D006290DD014E0734F05263E600C
:10066000714E78363560704E083633603F263F1D38
:100670003E6002E01678360704D10678C6F303160A
:10068000052E02D0062957D062E0684E3668684FC2
:100690003E60664E361D36683F1D3E60634E08362E
:1006A00036683F1D3E60614E0C3636683F1D3E6029
:1006B0005E4E103636683F1D3E605C4E143636681E
:1006C0003F1D3E60594E18363668594F20373E6000
:1006D000564E1C3636683F1D3E60544E20363668F6
:1006E0003F1D3E60514E243636683F1D3E604F4EE2
:1006F000283636683F1D3E604C4E2C3636683F1D0E
:100700003E604A4E30363668494F40373E60474E6D
:10071000343636683F1D3E60444E383636683F1DDD
:100720003E60424E3C3636683F1D3E603F4E40368E
:1007300036683F1D3E6002E01678360708D106781D
:10074000C6F30316032E06D0042E04D0052E02D0C5
:10075000062907D019E0D4F85812364A01F04F01A3
:10076000116002E0117809070FD10078C0F303107F
:10077000032803D0042801D0052806D12E4801689B
:10078000C90702D06FF001010160D4F830010628DA
:1007900008D1D4F83401062804D12848016841F46E
:1007A000806101601F487438016841F47001016084
:1007B000BFF34F8FBFF36F8F4FF01021D1F80C02B2
:1007C000C00720D01E4A15601E480468002CFCD0CB
:1007D000D1F80C4224F00104C1F80C420168002950
:1007E000FCD0136001680029FCD0BFF34F8F0D4887
:1007F000F0380168144A01F4E06111430160BFF36D
:100800004F8F00BFFDE7124910480860F0BD00009F
:10081000E00F00F0403501400DF0ADBA00C00740D8
:100820003C050040FCED00E01056004004040010C0
:1008300020C50040E40E0040000400403C1700408A
:1008400004E5014000E401400400FA050090D003F3
:100850004400002004220249024800F0F5B80000DC
:10086000E40200200080004004220249024800F017
:10087000EBB80000F0020020009000400148006842
:10088000004700002C00002002E008C8121F08C129
:10089000002AFAD170477047002001E001C1121F01
:1008A000002AFBD17047000072B609480068C007F3
:1008B00000D000BEBFF34F8F0548E4380168054AF9
:1008C00001F4E06111430160BFF34F8F00BFFDE70A
:1008D000F0ED00E00400FA050EB500210091CDE92D
:1008E00001106A4644F20100FFF7DEFF0EBD000072
:1008F00010B50446084600F053F80146062C11D204
:10090000DFE804F010030507090B08A006E008A0C3
:1009100004E008A002E008A000E008A0BDE8104044
:1009200000F012B806A106A0F8E70000312E000082
:10093000322E0000332E0000342E0000352E000031
:100940004572726F7200000070B505460C460120BA
:10095000FFF7B6FC4FF4C876304600F09BF98020D4
:10096000FFF7AEFC304600F095F9287830B1FFF77C
:10097000D7FC304600F08EF96D1CF6E7C020FFF77B
:100980009FFC304600F086F92078002806D0FFF75B
:10099000C7FC304600F07EF9641CF5E770BD00002E
:1009A000264B10B500225942984203D3521C0844EA
:1009B000D2B2F9E722493032224B0A7000225C425F
:1009C000984203D3521C2044D2B2F9E730324A7025
:1009D000002242F21073984205D3521CA0F51C501D
:1009E000D2B21038F7E730328A7000224FF47A73AF
:1009F000984204D3521CD2B2A0F57A70F8E7303294
:100A0000CA700022642803D3521CD2B26438F9E7BA
:100A100030320A7100220A2803D3521CD2B20A389B
:100A2000F9E730324A71303088717520C871612021
:100A3000087200204872024810BD000040420F00BA
:100A400048000020A08601002DE9F04117468846A5
:100A50000646002417E000BF4FF4A07000EB8405A9
:100A60004FF480307159A04059B1D6F804130142B7
:100A700007D02946304600F007F9D8E9002128467A
:100A80009047641CE4B2BC42E6D3BDE8F08110B5E7
:100A90000321092000F0A6F803210A2000F0A2F8A3
:100AA0000321082000F09EF80321BDE810400B2030
:100AB00000F098B810B500240A2000F0AEF800B994
:100AC0000124092000F0A9F808B944F00204082024
:100AD00000F0A3F808B944F004040B2000F09DF8DE
:100AE00008B944F008040A484179A1420DD10179BE
:100AF000491CC9B201710A2904D0C82903D30A3993
:100B0000017100E08471447110BD0021F8E700001C
:100B10000000002010B5062000F06DF8072000F05E
:100B20006AF84FF0A0404021C0F80C158021C0F8B1
:100B30000C1510BDFFF7EEFFFFF7A9FF00F0AEFAAE
:100B4000FFF78CFB00F014F8084C0025E079002832
:100B5000FCD0E57100F0D8FAFFF7ACFF00F0A2F985
:100B600000F0D2FAFFF7D4FCF0E70000000000200C
:100B70000EB51149114AD1E90801CDE901010E482C
:100B800001A9183000F0E6F908B1FFF7A5FE0A4800
:100B900018300068D0F810054FF47A52C240012096
:100BA0000346009004480021183000F0BDF90248C7
:100BB000183000F0ABF90EBD6011000015100000F8
:100BC00070B541EA4201DDE904564FF0A04441EA24
:100BD000830141EA052104EB800041EA0641C0F8A7
:100BE000001770BD1CB500220B4600921146019201
:100BF000FFF7E6FF1CBD1CB5002100910B4601224A
:100C000001911146FFF7DCFF1CBD4FF0A04202EB43
:100C100080000321C0F8001770474FF0A041D1F8C1
:100C20001015C14001F00100704701224FF0A043B0
:100C3000824011B1C3F808257047C3F80C257047EE
:100C4000024A1060101D0160704700002C760040C1
:100C5000030103481844C0F81425C0F81015704764
:100C60000070004002494058002800D00120704721
:100C700000700040034908B5084400220260006883
:100C8000009008BD0070004008B500224250405856
:100C9000009008BD002802D0014980010847704734
:100CA00071110000002802D00149800108477047F7
:100CB000B11100002DE9F041254C064612200D46E9
:100CC000C4F808032348017C022918D0027C01469D
:100CD0004FF4807891F82E10012A12D00222C4F825
:100CE000042301270774466005810022C26021B3F6
:100CF000458390F82D103046FFF7A2FF25E0122023
:100D000002E0C2682AB10220C4F804031120BDE841
:100D1000F081C660058361B947463846FFF7A2FFF8
:100D20000028FAD03846FFF7A5FF29463046FFF7DE
:100D300087FF0220C4F8040307E029463046FFF786
:100D40007FFF4046FFF796FF27600020DFE70000A7
:100D500000700040B402002070B505462A480C46D9
:100D6000017C09B1112070BD2179284E09B10129FA
:100D700001D10021316000EB45010A7F1AB910F85A
:100D80002D2F521C0270E0790877207A487721785D
:100D90006278302301F0030103EA02121143A278C2
:100DA0004FF4E06303EA02221143E2784FF48053E8
:100DB00003EA0232114322794FF4E02303EA0242AC
:100DC000114362794FF4801303EA02521143A2796E
:100DD0001B0103EA02620E4B2846114303EB00128B
:100DE000C2F81815227AE179FFF732FF227AE17909
:100DF0002846FFF72DFF207908B1012801D10120F5
:100E00003060002070BD0000B4020020007500407A
:100E1000007000402DE9F0411E4C054694F82C006E
:100E200010B10820BDE8F08144F8101B1A49287859
:100E30000860091D68780860E878A077012727779F
:100E40000020207060776060144EE0776FF0004003
:100E5000C6F808034FF48270FFF70CFFB015FFF7D8
:100E600009FFA8780E49400181F800048020C91FBD
:100E7000C1F88002C1F800010220C6F80403A07F77
:100E800010B10120C6F804030348F03807600020C1
:100E9000C8E70000B4020020F07500400070004078
:100EA00007E000E0084900200A7C012A01D0082060
:100EB000704791F82E30054A01210BB1116070473F
:100EC000024A121DFAE70000B40200200070004040
:100ED0002DE9F04106460D464FF480340068174670
:100EE000AC404BB14FF4A07101EB8501FFF7CCFE94
:100EF0003068C0F8044301E0C0F80843306800EBF4
:100F00008500C0F84075BDE8F0810000016801224D
:100F10000A600079034A00EB400002EB80000221E6
:100F200001727047E4020020F0B40468049E40F2AD
:100F30000115D4F800728D40AF43C4F80072046804
:100F4000D4F800521D43C4F800523346F0BCFFF7FA
:100F5000BFBF00002DE9F04104460E4600792C4940
:100F600000EB400001EB8007387A10B10820BDE8A3
:100F7000F0813A60706800254FF4A078786006E050
:100F800008EB85012068FFF77FFE6D1CEDB26079EC
:100F9000A842F5D82068F178000B40B200284FEA4B
:100FA000411106DA00F00F0000F1E02080F8141D76
:100FB00003E000F1E02080F8001420680122000B1B
:100FC00040B200F01F0302FA03F14009800000F173
:100FD000E020C0F88012C0F8001120687178D0F8C5
:100FE000043561F30103C0F804352068B178D0F806
:100FF000083561F30103C0F8083520683178D0F86E
:10100000103561F30303C0F810353A720020AEE7E3
:10101000E4020020B0F5A07F02D102490120C8718E
:10102000704700000000002070B5044600780028DA
:101030002CD103216068FFF73DFE08B1FFF74CFC9F
:10104000144DD5E90521D5E9076303E010B1022865
:1010500015D111E06068521CC82AB0F900000344A1
:1010600015D30D48002240F82130491C134696291B
:1010700000D300210220E9E76668B6F90460401C4D
:101080000328E3DBC5E90521C5E9076370BD01203D
:10109000DCE70000000000205C00002000B51748DD
:1010A00089B00DF10C0C0EC88DE80E000EC88CE84E
:1010B0000E0007C806AB83E807001048104928381F
:1010C000FFF7A8FE08B1FFF707FC69460020FFF70D
:1010D00043FE03A90120FFF73FFE06A90320FFF707
:1010E0003BFE08B1FFF7F8FB03210648FFF7E2FDDE
:1010F000002801D0FFF7F0FB09B000BD8811000007
:1011000029100000240000201448002101704170C3
:101110008170C1704289521C93B201224381C82B55
:1011200011D341810270C3895B1C9BB2C381052B23
:1011300009D3C1818270038A5B1C9BB203823C2B62
:1011400001D30182C27083895B1C9BB28381B3F59A
:10115000FA7F01D3818142707047000000000020B7
:101160000100070000000000000000000000000077
:101170000338FDD8704700000080004000040000E4
:10118000090000070000000000000000020000014C
:10119000000000000000000002000002000000004B
:1011A0000000000002000004000000000000000039
:1011B0000338FDD870470000D8110000000000205F
:1011C00048000000880800002012000048000020AD
:1011D000B822000098080000000000000000000095
:1011E00000000000000000000000000000000000FF
:1011F00000000000000000000000000000000000EF
:1012000000000000000000000000000015001F00AA
:101210001E001D001C001B001A0019000090D003C6
:0400000500000201F4
:00000001FF
