:1010000010080020351400001B14000027140000F5
:10101000551400005714000059140000000000008F
:101020000000000000000000000000005B14000051
:101030005D140000000000005F1400006114000057
:1010400063140000651400006714000069140000B8
:101050006B140000000000006D1400006F1400000D
:101060007114000073140000751400007714000060
:10107000791400007B1400007D1400007F14000030
:101080008114000083140000851400008714000000
:10109000891400008B1400008D1400008F140000D0
:1010A00091140000931400000000000000000000F4
:1010B00095140000971400000000000000000000DC
:1010C0000000000000000000000000000000000020
:1010D0000000000000000000000000000000000010
:1010E0000000000000000000000000000000000000
:1010F00000000000000000000000000000000000F0
:1011000000000000000000000000000000000000DF
:1011100000000000000000000000000000000000CF
:1011200000000000000000000000000000000000BF
:1011300000000000000000000000000000000000AF
:10114000000000000000000000000000000000009F
:10115000000000000000000000000000000000008F
:10116000000000000000000000000000000000007F
:10117000000000000000000000000000000000006F
:10118000000000000000000000000000000000005F
:10119000000000000000000000000000000000004F
:1011A000000000000000000000000000000000003F
:1011B000000000000000000000000000000000002F
:1011C000000000000000000000000000000000001F
:1011D000000000000000000000000000000000000F
:1011E00000000000000000000000000000000000FF
:1011F00000000000000000000000000000000000EF
:1012000030B5039D049C41EA420141EA830141EA71
:101210000521144A41EA044142F8201030BD012260
:1012200002FA00F0104A09B9506070471060704728
:1012300021A2105C0021F2E780B50020FFF7F8FF43
:10124000BDE802400120F3E71BA1085C07490A68DA
:10125000012303FA00F020EA02034B60104088608B
:1012600070470000000700500805005004050050BA
:101270003EB50446E00713D50021019100250095F5
:101280000023012201210220FFF7BAFF01950095FA
:101290000023012201211F20FFF7B2FFFFF7CCFF3F
:1012A000A00707D5002100220191009203231A20F4
:1012B000FFF7A6FF37BD0000021F000020492148AC
:1012C0000A68C2F34231416000221F490A604A6045
:1012D00002601E491E480A6802604B6843608A68C3
:1012E0008260CB68C3600A6902614B6943618A69A5
:1012F0000262CB6943620A6A82624B6AC3628A6A8B
:101300000263CB6A43630A6B02644B6B43648A6B70
:101310008264CB6B0F4AC364096C0165FB201060CB
:101320000D480168CA0744BF6FF001010160024A1D
:101330000248106070470000080000200090D003B1
:1013400044020010380500400C0100400404001065
:1013500020C5004018F500400004004038B50120C9
:10136000FFF786FF00252846FFF76EFF4FF4FA745B
:1013700005A14FF47A4041F001018847641EF7D17E
:101380006D1C012DEEDCEEE70738FDD8704700003C
:1013900030B450F8041B79B1026843680244083045
:1013A000DC0744BFA9F10104E31852F8045B43F8D9
:1013B000045B091FF9D1ECE730BC704710B5074951
:1013C00079441831064C7C44163404E00A68081D40
:1013D000114488470146A142F8D110BD0800000021
:1013E00018000000ADFFFFFF0400000064000000D3
:1013F00008000020000000000120C046002801D0A5
:10140000FFF7DCFFAFF300800020AFF30080FFF7B1
:10141000A5FF00F000F800F001B8FEE707463846E7
:1014200000F002F8FBE7FEE720210903263118202F
:10143000ABBEF9E70148804701480047BD120000F4
:1014400045140000AFF30080AFF30080FFF7D4FF36
:101450000090D003FEE7FEE7FEE7FEE7FEE7FEE7CB
:10146000FEE7FEE7FEE7FEE7FEE7FEE7FEE7FEE754
:10147000FEE7FEE7FEE7FEE7FEE7FEE7FEE7FEE744
:10148000FEE7FEE7FEE7FEE7FEE7FEE7FEE7FEE734
:08149000FEE7FEE7FEE7FEE7C0
:04000005000014459E
:00000001FF
