:1000000038200020E1250000A1250000C7250000C0
:10001000D3250000FD250000FF25000000000000A2
:1000200000000000000000000000000001260000A9
:10003000032600000000000005260000072600003F
:10004000092600000B2600000D260000B324000046
:100050000F260000112600001326000015260000C0
:1000600017260000192600001B2600001D26000090
:100070001F26000021260000232600002526000060
:1000800027260000292600002B2600002D26000030
:100090002F26000031260000332600003526000000
:1000A00037260000392600003B2600003D260000D0
:1000B0003F26000041260000000000000000000074
:1000C0004326000045260000472600004926000080
:1000D0004B2600004D2600004F26000000000000C7
:1000E0000000000000000000000000000000000010
:1000F0000000000000000000000000000000000000
:1001000000000000000000000000000000000000EF
:1001100000000000000000000000000000000000DF
:1001200000000000000000000000000000000000CF
:1001300000000000000000000000000000000000BF
:1001400000000000000000000000000000000000AF
:10015000000000000000000000000000000000009F
:10016000000000000000000000000000000000008F
:10017000000000000000000000000000000000007F
:10018000000000000000000000000000000000006F
:10019000000000000000000000000000000000005F
:1001A000000000000000000000000000000000004F
:1001B000000000000000000000000000000000003F
:1001C000000000000000000000000000000000002F
:1001D000000000000000000000000000000000001F
:1001E000000000000000000000000000000000000F
:1001F00000000000000000000000000000000000FF
:1002000010B5040008D0DFF8F4134FF47A4041F041
:1002100001018847641EF6D110BDDFF8E4234FF0DA
:100220008061116000F0FF0001F097BE10B5044638
:10023000000A00F00EF8E0B2BDE8104009E010B589
:100240000446000A01F089FE2046BDE8104001F096
:1002500084BEDFF8B0234FF08061116001F07DBEF5
:10026000DFF8A4038079D8E770B5DFF89C63044613
:10027000F0790D46FFF7D1FF200AFFF7EAFFE0B261
:10028000FFF7E7FF307AFFF7C8FF280AFFF7E1FF23
:10029000E8B2BDE87040DCE780B5FFF7E5FFFFF7A7
:1002A000DFFFDFF864038089BDE80240BEE710B5D8
:1002B000DFF85043102121603220FFF7A1FF102109
:1002C00061601420FFF79CFF102020601420FFF7CE
:1002D00097FFDFF83403F0214FF4A07201804280D1
:1002E0002C232A212B228371C1710272C020FFF7B7
:1002F00094FF2120FFF7ADFFC120FFF78EFF1220F2
:10030000FFF7A7FFC520FFF788FF3220FFF7A1FF07
:100310003C20FFF79EFFC720FFF77FFFC120FFF7BC
:1003200098FF3620FFF779FF0820FFF792FF3A2069
:10033000FFF773FF5520FFF78CFFB120FFF76DFF2C
:1003400000F082F81820FFF784FFB620FFF765FF62
:100350000A20FFF77EFFA220FFF77BFFF220FFF7C6
:100360005CFF00F071F82620FFF757FF0120FFF730
:1003700070FFE020FFF751FF0F20FFF76AFF2020FA
:10038000FFF767FF1E20FFF764FF0920FFF761FFFB
:100390001220FFF75EFF0B20FFF75BFF5020FFF7F7
:1003A00058FFBA20FFF755FF4420FFF752FF0920FE
:1003B000FFF74FFF1420FFF74CFF0520FFF749FF21
:1003C0002320FFF746FF2120FFF743FF00F03CF812
:1003D000E120FFF722FF00F037F81920FFF739FF7F
:1003E0001920FFF736FF00F02FF81220FFF731FF3A
:1003F0000720FFF72EFF2D20FFF72BFF2820FFF708
:1004000028FF3F20FFF725FF0220FFF722FF0A20E9
:10041000FFF71FFF0820FFF71CFF2520FFF719FF3C
:100420002D20FFF716FF0F20FFF713FF1120FFF716
:10043000F4FE0720FFF7E4FE4FF49670FFF7E0FEAE
:10044000BDE810402920E8E6002002E72DE9F0474A
:100450008046DFF8DC0CDFF8B0918A4600EB4217EB
:10046000002500F047F8FFF7FBFE0224002639784C
:100470000122B240114214BFB9F80C00B9F80E00C5
:10048000FFF7D4FE761CF0B20828F0DB7F1C641E58
:10049000ECD16D1CE8B21028E3DBBDE8F0872DE954
:1004A000F04780460FF69040DFF85C918A4600EBFB
:1004B000C217002500F01EF8FFF7D2FE00F032FE52
:1004C0000424002639780122B240114214BFB9F841
:1004D0000C00B9F80E00FFF7B2FE761CF0B2082847
:1004E000F0DB7F1C641EECD16D1CE8B22028E1DB40
:1004F000BDE8F0875AFA85F189B21FFA88F0B3E6B1
:10050000000000002DE9F84F3F4E84B00746DDF8AB
:100510003800A2F12003DBB23CA20D46B189ADF850
:10052000001002EB03140C220FF2D061039453432A
:10053000CA180028A946029230D14FF0000A09E0FB
:100540007F1C3188ADF80080B8B288424D464CD24D
:100550000AF1010A9DF810000190824545DA0C2845
:100560000CBF02980398BDF8008010F80AB0082468
:100570005FEA0B604CBF4046F089B081A9B200F041
:1005800079FD00F07AFD36D2019AA0EB0900904285
:10059000D6D0641EECD1ADF80080D9E7002414E079
:1005A00010F804B04FF008085FEA0B6002D5A9B25A
:1005B00000F060FD00F061FD17D2A0EB090050458E
:1005C0000DD0B8F10108EFD1641C9DF810A054457E
:1005D0000BDABAF10C0F0CBF02980398E0E77F1C0E
:1005E0003088B9B281424D46EED3BDF80010B181DA
:1005F00005B0BDE8F08FADF80080F6E7D02300002D
:100600000C0500500805005000000020000000000C
:1006100000000000000000000000000000000000DA
:1006200000001FCC000C00000000000000000800CB
:10063000300060000800300060000000022003FC71
:100640001E20022003FC1E200220000000000E18C5
:1006500011043FFF10840C78000000000F0010848C
:100660000F3800C0077818840078000000780F84E5
:1006700010C411240E9800E40084000808006800EB
:1006800070000000000000000000000000000000FA
:10069000000007E01818200440020000000040029B
:1006A0002004181807E0000000000000024002408B
:1006B00001800FF0018002400240000000800080B5
:1006C00000800FF800800080008000000001000D15
:1006D000000E00000000000000000000000000808C
:1006E0000080008000800080008000800000000CFE
:1006F000000C0000000000000000000000000006E8
:10070000001800600180060018002000000007F0BB
:10071000080810041004080807F00000000008048E
:1007200008041FFC000400040000000000000E0C80
:1007300010141024104411840E0C000000000C183A
:1007400010041104110412880C700000000000E075
:100750000320042408241FFC0024000000001F982C
:10076000108411041104108810700000000007F0BC
:1007700008881104110418880070000000001C0093
:10078000100010FC13001C001000000000000E38C8
:1007900011441084108411440E380000000007003A
:1007A000088C10441044088807F000000000000086
:1007B0000000030C030C000000000000000000001B
:1007C00000010106000000000000000000000080A1
:1007D000014002200410080810040000022002203A
:1007E000022002200220022002200000000010044B
:1007F00008080410022001400080000000000E00E4
:100800001200100C106C10800F00000003E00C1898
:1008100013E4142417C4082807D000000004003C87
:1008200003C41C40074000E4001C000410041FFC2B
:100830001104110411040E880070000003E00C186C
:1008400010041004100410081C10000010041FFCF9
:10085000100410041004080807F0000010041FFC26
:100860001104110417C410040818000010041FFC20
:100870001104110017C010000800000003E00C185C
:100880001004100410441C780040000010041FFCE9
:1008900010840080008010841FFC100400001004ED
:1008A00010041FFC100410040000000000030001ED
:1008B000100110011FFE10001000000010041FFCAA
:1008C000110403801464181C1004000010041FFCA1
:1008D0001004000400040004000C000010041FFCBD
:1008E0001F0000FC1F001FFC1004000010041FFC70
:1008F0000C04030000E010181FFC100007F00808AB
:10090000100410041004080807F0000010041FFC75
:1009100010841080108010800F00000007F008186D
:1009200010241024101C080A07F2000010041FFCF9
:100930001104110011C011300E0C000400000E1C37
:1009400011041084108410441C380000180010009A
:1009500010041FFC100410001800000010001FF805
:1009600010040004000410041FF8100010001E0002
:1009700011E0001C007013801C0010001FC0103C10
:1009800000E01F0000E0103C1FC000001004180C25
:10099000163401C001C01634180C100410001C00DD
:1009A000130400FC13041C00100000000804101CB9
:1009B0001064108413041C041018000000000000D0
:1009C00000007FFE400240024002000000003000B4
:1009D0000C0003800060001C0003000000004002C7
:1009E000400240027FFE0000000000000000000006
:1009F00020004000400040002000000000010001F5
:100A000000010001000100010001000100004000A0
:100A100040002000000000000000000000000098DE
:100A2000012401440144014400FC000410001FFCA7
:100A300000880104010400880070000000000070BC
:100A40000088010401040104008800000000007017
:100A500000880104010411081FFC0004000000F8D4
:100A6000014401440144014400C8000000000104A5
:100A700001040FFC1104110411001800000000D63D
:100A800001290129012901C90106000010041FFCE8
:100A9000008401000100010400FC000400000104C6
:100AA000190419FC00040004000000000000000309
:100AB00000010101190119FE0000000010041FFCD3
:100AC0000024004001B4010C0104000000001004E7
:100AD00010041FFC0004000400000000010401FCDD
:100AE0000104010001FC0104010000FC010401FCFF
:100AF000008401000100010400FC0004000000F873
:100B0000010401040104010400F80000010101FFD7
:100B100000850104010400880070000000000070DE
:100B2000008801040104010501FF00010104010422
:100B300001FC00840104010001800000000000CCE1
:100B40000124012401240124019800000000010077
:100B5000010007F80104010400000000010001F891
:100B6000000400040004010801FC000401000180ED
:100B70000170000C001001600180010001F0010C07
:100B8000003001C00030010C01F001000000010440
:100B9000018C00740170018C0104000001010181CD
:100BA0000171000E00180160018001000000018445
:100BB000010C013401440184010C0000000000001C
:100BC0000000000001003EFC400240020000000066
:100BD00000000000FFFF00000000000000004002D5
:100BE00040023EFC01000000000000000000600028
:100BF0008000800040004000200020000000000035
:100C00000000000000000000000000003F40000065
:100C100000000000000030004000300040000000F4
:100C200009000BC03D000BC03D00090018C0244066
:100C30007FE0224031800000180024C01B000D809E
:100C40003240018003801C4027401C800740004048
:100C50001000600000000000000000000000000024
:100C600000001F80204040200000402020401F80C6
:100C700000000000090006001F80060009000000B7
:100C8000040004003F800400040000000010006025
:100C90000000000000000000040004000400040044
:100CA0000400000000000040000000000000000000
:100CB000002001C006003800400000001F802040D6
:100CC000204020401F800000000010403FC0004036
:100CD0000000000018C021402240244018400000BD
:100CE00010802040244024401B80000002000D00A2
:100CF00011003FC0014000003C80244024402440BB
:100D0000238000001F8024402440344003800000E2
:100D10003000200027C03800200000001B80244045
:100D2000244024401B8000001C0022C0224022409E
:100D30001F800000000000000840000000000000CC
:100D4000000000000460000000000000000004003B
:100D50000A00110020804040090009000900090034
:100D60000900000000004040208011000A0004003B
:100D70001800200023402400180000001F8020409D
:100D8000274029401F400000004007C039000F00E5
:100D900001C0004020403FC0244024401B80000090
:100DA0001F802040204020403080000020403FC075
:100DB000204020401F80000020403FC024402E40A3
:100DC00030C0000020403FC024402E003000000012
:100DD0000F001080204022403380020020403FC09E
:100DE000040004003FC02040204020403FC020407D
:100DF000204000000060202020203FC02000200074
:100E000020403FC024400B0030C0204020403FC065
:100E100020400040004000C03FC03C0003C03C00F8
:100E20003FC0000020403FC00C4023003FC02000D6
:100E30001F802040204020401F80000020403FC0F5
:100E400024402400180000001F802140214020E0A1
:100E50001FA0000020403FC02440260019C00040D1
:100E600018C024402440224031800000300020403F
:100E70003FC020403000000020003F800040004084
:100E80003F80200020003E0001C007003800200005
:100E9000380007C03C0007C038000000204039C0BF
:100EA000060039C0204000002000384007C038400C
:100EB00020000000304021C02640384020C0000003
:100EC000000000007FE04020402000000000700093
:100ED0000C000380004000000000402040207FE024
:100EE0000000000000002000400020000000000082
:100EF0000010001000100010001000100000000092
:100F00004000000000000000000002800540054095
:100F100003C0004020003FC00440044003800000A4
:100F200000000380044004400640000000000380ED
:100F3000044024403FC000400000038005400540BD
:100F400003400000000004401FC024402440200053
:100F5000000002E0055005500650042020403FC02C
:100F60000440040003C000400000044027C00040CB
:100F70000000000000100010041027E00000000036
:100F800020403FC00140070004C0044020402040F2
:100F90003FC000400040000007C0040007C004003C
:100FA00003C00000044007C00440040003C0004028
:100FB000000003800440044003800000041007F098
:100FC00004500440038000000000038004400450EB
:100FD00007F00010044007C00240040004000000B5
:100FE000000006400540054004C000000000040069
:100FF0001F800440004000000400078000400440BF
:1010000007C000400400070004C00180060004007F
:10101000060001C0070001C006000000044006C031
:10102000010006C0044000000410071004E0018025
:10103000060004000000044005C006400440000013
:101040000000000004007BE04020000000000000E1
:101050000000FFF000000000000040207BE00400E2
:101060000000000040008000400020002000400000
:10107000BDF80010B8B2FFF70FB96D1C7188A8B2A7
:1010800088424FEA4B0B70472DE9FC4707460D4657
:10109000DDF828800B9C5FFA87F9BE1805EB030A80
:1010A000207820385F2816D2B8B2B1B2884224BF67
:1010B0004F464544A8B21FFA8AF188420BD2012359
:1010C0000093434614F8012BA9B2B8B2FFF71AFAFD
:1010D00007EB5807E4E7BDE8F3872DE9F8438046BE
:1010E0000E46002700250FF2D019A91989B24046F3
:1010F000FFF7BAF8FFF7B4F800F014F82824B8B2F4
:1011000009EB400219F81000517840EA0120FFF77E
:1011100096F87F1C641EF2D16D1CA8B22828E4DB6F
:10112000BDE8F18303494FF080600860704700001C
:10113000D823000008050050000000000000000057
:101140000040000030C00100E0E00100C0E100000C
:10115000C061001880F1FF3F00700018003E0018C9
:1011600004DA01181CEE0118386F601878F7FF18C0
:1011700070318618B019061880090618800586197E
:10118000C0FEFF1BC000061AC0306618E070E619EA
:101190007C30E6187030E6186030E61870F8FF1CF6
:1011A0007030E01C7000001C7000F01F7000800F99
:1011B0000000000700000000000000000000000028
:1011C00000008000000EC00100FEFF03000EC00101
:1011D000000EC001000EC00100FEFF01000EC001A4
:1011E000000EC001000EC00100FEFF01000EC00194
:1011F000000640000000000030700C18F0FFFC3FBB
:1012000070700C1870700C1870700C1870700C18CE
:10121000F07FFC1F70700C1870700C1870700C1838
:1012200070700C1870700C18F07FFC1F70700C1828
:10123000100004000000000000000000000000009A
:101240000000300000007000001C7000FC1F7000E7
:10125000008C7100208C7700E08C7304F08E731E7C
:10126000708EF31F708EFB0C708E7F0C70FE730CF3
:101270003086730C3086730C3096730CF8BF730C89
:1012800038F8730C00B8730C00B8F30F00BE730687
:10129000E09B73307E9873301C981330089C0330A9
:1012A000009C0330008C0378E00FFF7F8007000074
:1012B0000003000000000000FFFFFFFFFFFFFFFF33
:1012C000FFFFFFFFFFFFFFFFFFFFFFFFFFFFFFFF2E
:1012D000FFFFFFFFBEF77DEFBAD6B6B5F39CB29421
:1012E000B39CB29434A5F7BDFBDE7DEFFFFFFFFF9B
:1012F000FFFFFFFFFFFFFFFFFFFFFFFFFFFFFFFFFE
:10130000FFFFFFFFFFFFFFFFFFFFFFFFFFFFFFFFED
:10131000FFFFFFFFFFFFFFFFFFFFFFFFFFFFFFFFDD
:10132000BEF7FBDEF39CCB5AC73904218210421072
:101330004210410883184529C7390C6375AD3CE755
:10134000BEF7FFFFFFFFFFFFFFFFFFFFFFFFFFFFF6
:10135000FFFFFFFFFFFFFFFFFFFFFFFFFFFFFFFF9D
:10136000FFFFFFFFFFFFFFFFFFFFFFFFFFFF3CE768
:10137000B2940842C318821004214529863186316F
:10138000863186314529042182104108C31808425C
:10139000F39C3CE7FFFFFFFFFFFFFFFFFFFFFFFFA7
:1013A000FFFFFFFFFFFFFFFFFFFFFFFFFFFFFFFF4D
:1013B000FFFFFFFFFFFFFFFFFFFFFFFFFBDE0C63F1
:1013C000C318C3184529C7390842084208420842D1
:1013D00008420842C739C73986318631042141089D
:1013E0008210CB5ABAD6FFFFFFFFFFFFFFFFFFFFC0
:1013F000FFFFFFFFFFFFFFFFFFFFFFFFFFFFFFFFFD
:10140000FFFFFFFFFFFFFFFFFFFFFBDECB5A821056
:101410004529C73908420842094A494A494A494ABE
:10142000494A494A0842C739C739C7398631452927
:1014300083180000C84138C6FFFFFFFFFFFFFFFF12
:10144000FFFFFFFFFFFFFFFFFFFFFFFFFFFFFFFFAC
:10145000FFFFFFFFFFFFFFFF7DEF8E738210452927
:10146000C7390842094A8A523084CF7B8A52494A96
:101470004A52494ACB5ACF7B0C630842C73986315E
:101480004529C3180000494ABAD6FFFFFFFFFFFFF6
:10149000FFFFFFFFFFFFFFFFFFFFFFFFFFFFFFFF5C
:1014A000FFFFFFFFFFFFFFFFF39CC3180421C739B5
:1014B0000842494A494A72947DEF7DEFB2944A52FC
:1014C000494A8A5275ADBEF7BAD64D6BC739C7398E
:1014D00086314529C3184108CF7B7CE7FFFFFFFF1A
:1014E000FFFFFFFFFFFFFFFFFFFFFFFFFFFFFFFF0C
:1014F000FFFFFFFFFFFFBAD608428210C73908423C
:10150000494A494A8E73FBDEFFFFBEF7BAD68E7397
:10151000084230843CE77DEFFFFFB6B5494AC73942
:1015200086314529042141084529B6B5FFFFFFFF53
:10153000FFFFFFFFFFFFFFFFFFFFFFFFFFFFFFFFBB
:10154000FFFFFFFFBEF7718C410845290842494A59
:10155000494A4A52B294BEF7BEF7B294CF7BCF7BD2
:10156000494AB6B5F39C0C6338C6BAD60C638739C2
:10157000C73986314529C318410830847DEFFFFF04
:10158000FFFFFFFFFFFFFFFFFFFFFFFFFFFFFFFF6B
:10159000FFFFFFFF3CE7CB5A4108C7390842494AE1
:1015A0004A528A52F39CFFFF7DEFC739C3180C6380
:1015B000CB5AB6B5B294CB5A75ADFAD64D6B8739C6
:1015C000C73986314529042141088A5279CEFFFF67
:1015D000FFFFFFFFFFFFFFFFFFFFFFFFFFFFFFFF1B
:1015E000FFFFFFFF38C686310421C841494A494AF6
:1015F0004A52494AB18CBEF7BEF7B294CF7BCF7B3B
:10160000494A74A57DEF7CE7BEF779CE0C63C739F4
:10161000C7398631452904218210452975ADBEF7A9
:10162000FFFFFFFFFFFFFFFFFFFFFFFFFFFFFFFFCA
:10163000FFFFFFFF34A5821086310842494A494A1C
:101640008A52494A4D6BBAD6FFFFFFFF79CE0D6330
:10165000C739CF7B7DEFFFFFFFFF75AD08428631B5
:10166000C739863145294529C318C318B2947DEF7F
:10167000FFFFFFFFFFFFFFFFFFFFFFFFFFFFFFFF7A
:10168000FFFFBEF7B28C4108C7390842494A494AB0
:101690008A528A524A4AD07B7AC67BBE906BC9393D
:1016A0008831C939B384BBC6F8B5CC5A8631C7393D
:1016B000C739863145294529C420410830843CE793
:1016C000FFFFFFFFFFFFFFFFFFFFFFFFFFFFFFFF2A
:1016D000FFFF3CE78A4AC310C7390842494A494AD2
:1016E0004A4A4A42093A084A096B497BC67A058345
:1016F0004683C57AC672097B485A87318821882972
:101700008631863145294529042141084A4ABAD6FD
:10171000FFFFFFFFFFFFFFFFFFFFFFFFFFFFFFFFD9
:10172000FFFFF7C582500541C7290842494A4A428E
:10173000494A097B889BC6B321D4A0DCE1E461ED72
:1017400061ED21EDA0E420DC80CB43ABC482065ADE
:101750004721462945290429041982108218F39C3F
:101760007DEFFFFFFFFFFFFFFFFFFFFFFFFFFFFF1B
:101770007DEF4D9300A082B8C7310932494A867A7D
:1017800043C36BEDF4F6EBFD20FD20FD60FDA0FDF5
:10179000A0FD60FD60FD20FDE0FCA0FC60F4C1DB6D
:1017A000839AC54945290419C42082380050CB6A60
:1017B000BAD6FFFFFFFFFFFFFFFFFFFFFFFFFFFFA7
:1017C000FBEE04A100C000F0C3A0C8414942059B44
:1017D00020FCA4FC69FDE8FD63FD20FD60FD60FDCB
:1017E00060FD20FD20FDE0FCE0FCA0FC60FC20FC96
:1017F00041D3C5494519C438826841880070495AA7
:1018000079CEFFFFFFFFFFFFFFFFFFFFFFFFFFFF9F
:10181000FBF682C000D086C146F141C845798952A5
:101820008862866AC67AC4BBE1FC60FD60FDA0FDEB
:10183000A0FD60FD60FDE0FC60E403938472446AF7
:10184000C5414529C35841A8409800B000600C6BC1
:1018500079CEFFFFFFFFFFFFFFFFFFFFFFFF7DEFE1
:10186000CE83828800F8C4D80CF38AFA82E882B06A
:101870004569C7510842083A865A839BA2BC22CDCB
:1018800021CDA1C422B4C47A063A8629452905315E
:10189000C450419000C000A800A000A800304A4AEF
:1018A000BAD6FFFFFFFFFFFFFFFFFFFF7DEF8E7345
:1018B000C318053982A800F8C3F84DFB4DFBC7F9E2
:1018C000C3F082D8C3B00481456146518649864938
:1018D000464145414541454105490461829041B039
:1018E00000D000C800A800A800B84158821082109B
:1018F000B294BEF7FFFFFFFFFFFFBEF7CF7B821062
:10190000042186298641049940E841F886F9CBFAFA
:1019100049FA82F800F800F000E841D841D041C00F
:1019200041C041C041C041C800D000E000E000D843
:1019300000D000B800A841888248821082100000C0
:10194000452979CEFFFFFFFFBEF7F39C8210C31835
:1019500045298631C731307CF3DC86E100F000F8A0
:1019600041F841F800F800F800F800F800F800F835
:1019700000F800F800F800F800E800E000E000D807
:1019800000C841A08A9A0C63041182108210410899
:1019900000004D6B7DEFFFFFFBDE08424210452942
:1019A00086318631494A38BEFFFF38D686A900C83D
:1019B00000E000F000F800F800F800F800F800F887
:1019C00000F800F800F000F000E800E000D0C39854
:1019D0008A8AB2A4BAC6F7B5084241088210410803
:1019E00000004529F7BDFFFF718C410804214529FE
:1019F000863186310C633CE7FFFF79D646B900E0BB
:101A000042C882A882B041D882E882F041E841E829
:101A100041E841F041E841D804C108924D8B34A51A
:101A2000FBC6FBD6BACE3CE73084C3184108410858
:101A300000004108CF7B7DEF494A00000421452981
:101A4000463186313084FFFFFFF7F7DD09DA83F88E
:101A500001F042C08298499AF3B4F3CC71BC8EBBBA
:101A60008EBB30BC71BCF3BCB6BDFBCEBEE77DE720
:101A70003BDFBAD679CEFBDE75AD86314108410831
:101A800000000000494AFBDE0421410804214529E9
:101A900045298739B294FFFFBEF734DD0CEB09FA14
:101AA00000F001D800D88BD27DE7FFFFFFFFFFFFDA
:101AB000FFFFFFFFFFFFFFFFFFFFBEFF7DEFFBDE2E
:101AC000FBDEBAD679CEBAD678C6C739000041084F
:101AD00000000000C73979CE00008210C31804212D
:101AE00005298631B39CFFFFFFF775DDC7E9C7F90C
:101AF00001F801F000E849E2FBEEFFFFFFFFFFFF06
:101B0000FFFFFFFFFFFFFFFFFFFFBEF77DEFFBDEE5
:101B1000FBDEBAD679CEBAD6B9CE084200000000B4
:101B200000000000C73938C600008210821004216E
:101B3000042145293084FFFFFFFF38DEC4D000F0C8
:101B400001F800F800F008D2FBE6FFFFFFFFFFFFFF
:101B5000FFFFFFFFFFFFFFFFFFFFBEF77DEFFBDE95
:101B6000BAD679CE79CEBAD679CEC7394108000037
:101B700000000000863138C600000000C318CB5AB0
:101B80008631C318CB5A7DEFFFFF7DEFCFBBC3B0CB
:101B900041D041D082B84DB37DE7FFFFFFFFFFFF8B
:101BA000FFFFFFFFFFFFFFFFBEF7BEF73DEFFBDECE
:101BB000BAD679CE79CEFAD6F7BD04218631042182
:101BC00000000000863138C68631C318CB5A75AD87
:101BD000CF7B41088631F7BDFFFFFFFFBEEF74B535
:101BE000309C309C72A4BBD6FFFFFFFFFFFFFFFFBE
:101BF000FFFFFFFFFFFFFFFFBEF77DEF3CE7FBDED0
:101C0000BAD679CE79CE3CE7718C81080C63CF7B54
:101C1000821000008A5238C675AD718CB6B53CE7AB
:101C2000FBDEC7390000CF73FFFFFFFFFFFFFFFFA1
:101C3000FFFFFFFFFFFFFFFFFFFFFFFFFFFFFFFFB4
:101C4000FFFFFFFFFFFFBEF77DEF7DEF3BDFFAD623
:101C500079CE79CEFBDEB9CEC739C420718CBAD625
:101C6000718CCB5AB294BAD6FFFF7DEF7DEFFFFFA8
:101C7000FFFFB6B54629051975A5FFFFFFFFFFFF5A
:101C8000FFFFFFFFFFFFFFFFFFFFFFFFFFFFFFFF64
:101C9000FFFFFFFFFFFFBEF77DEF3CE7FBDEBAD69D
:101CA00079CEBAD6FCDE4E6342080C63F7BDBEF7B0
:101CB000FFFFFBDEFBDEBEF7FFFFFFFFFFFFFFFFC7
:101CC000FFFFFFFFF49C04210521B6A5FFFFFFFFE6
:101CD000FFFFFFFFFFFFFFFFFFFFFFFFFFFFFFFF14
:101CE000FFFFBEF7BEF77DEF3CE7FBDEBAD679CE4D
:101CF000FBDEBBD6D17383188639349DBDEFFFFF61
:101D0000FFFFFFFFFFFFFFFFFFFFFFFFFFFFFFFFE3
:101D1000BEFF35D6EBCC43B340510519F58CBEEF71
:101D2000FFFFFFFFFFFFFFFFFFFFFFFFFFFFBEF70C
:101D3000BEF77DEF7DEF3CE7FBDEBADEBAD63CDFD7
:101D40003ABE4F63824940A323B4CC833ABEFFFF1F
:101D5000FFFFFFFFFFFFFFFFFFFFFFFFFFFFBFF7DB
:101D6000B5BD829220F4A0FC60E4408284418F6B78
:101D700077AD3DE7FFFFFFFFFEFFBEF7BEF7BEF703
:101D80007DEF7DEF3CE7FBDEFBDE3DE7BBCE369D26
:101D90000B6B416A60C420FE60F5008BC76A38C6D1
:101DA000BEF7FFFFFFFFFFFFFFFFFFFFFFFF7DEF1E
:101DB0004B7B80B2A0FCA0FCE0FCE0FCC0CBC18A65
:101DC00045624D6BB394F7BD3DDFFFF7FFFFBEF7F4
:101DD0007DEF7DEF7DE73DDFBAC675A58D7B847A0B
:101DE00040B3E0ECE0FDE0FD60F520E5A0D40A6B37
:101DF000FBDEFFFFFFFFFFFFFFFFFFFFFFFF7DEFAA
:101E0000CC9340EB60FCA0FCE0FC20FD60FD20F5E5
:101E1000A0D4C0BB429B458B6B9CAE9C718CB39491
:101E2000339D34A5F2A4F0B4CA9B049B40BB20E4CC
:101E300020FDA0FDA0FDE0FDE0FDE0FD20C4885AEE
:101E400038BEFFFFFFFFFFFFFFFFFFFFFFFFFFFFAA
:101E500078D646AB40DB20F460FCA0FCE0FC60FDE3
:101E6000A0FD60FD20F5A0DCC0B3C05186290D6344
:101E70008F7B0D5BC741018200C3C0E360FCA0FC07
:101E8000E0FCE0FC60F560F520E5809B8662308434
:101E900079CEFFFFFFFFFFFFFFFFFFFFFFFFFFFF09
:101EA000FFFF38C62D9C059343A382B3C2BBC2BBC0
:101EB00022B482A34293C37A85620B637184B6B560
:101EC00079CE79C6B5AD70944A8B06830493049B92
:101ED000439B439B4393048308738D73B39479CEE0
:101EE0007DEFFFFFFFFFFFFFFFFFFFFFFFFFFFFF94
:101EF000FFFFFFFF3CDF38BE75B533A533A5F39C6C
:101F0000F39CF39CF394F39C35A5F8BDFBDEBEF780
:101F1000FFFFFFFFFFFF7EEFBBD6F8BDB6AD75AD8F
:101F200034A5339D349D35A5B7AD79C63CE7BEF7E2
:101F3000FFFFFFFFFFFFFFFF0000000000000000A9
:101F400010B5040008D000BF71A14FF47A4041F0F1
:101F500001018847641EF6D110BD30B55D494FF0D0
:101F6000004204064CBF0A604A604FF000630B60F9
:101F70004B6045064CBF0A604A600B604B608506AB
:101F80004CBF0A604A600B604B60C5064CBF0A60DC
:101F90004A600B604B6005074CBF0A604A600B60EB
:101FA0004B6045074CBF0A604A600B604B60850779
:101FB0004CBF0A604A600B604B60C0074CBF0A60B0
:101FC0004A600B604B6030BD38B54348414C03213B
:101FD00081610322C2618165C266C16502604FF002
:101FE0000041216061604FF0007525604265256009
:101FF0000220FFF7A5FF656031BD0000E0B537495D
:10200000374B002008804FF6FF721A800021002213
:10201000FEF745FA012200212820FEF740FA0222AD
:1020200000215020FEF73BFA00F060F80122232146
:102030001420FEF70BFA022223212820FEF706FACD
:10204000032223213C20FEF701FA04222321502001
:10205000FEF7FCF9052223216420FEF7F7F900BF03
:1020600025A00190102100911023C82237210020C3
:10207000FFF70AF807BD70B54B241A4D09E0A1B26D
:10208000FFF72BF828362988B0B227398842F6DBCB
:1020900028346988A0B227398842B8BF0026F2DB0D
:1020A00070BD10B5FFF790FFFEF701F900F01EF8C4
:1020B000FFF7A4FFFFF7DFFF0B4C206880F4006000
:1020C0002060C820216881F480612160FFF738FF1B
:1020D000F3E7000008050050100700500E00002034
:1020E0000C000020000000200405005000222321E5
:1020F0000020FEF7ABB90000322E382054465420A1
:10210000535049203234302A33323000000000006E
:102110000338FDD87047000030B59848017806298B
:1021200004BF017911F00F0F11D1816801F0F002A5
:10213000302A1FBF01F0F003402B01F0F0015029BD
:1021400005D18F498F4B0A68C2F3042119600178C9
:10215000062904BF017911F00F0F02BF017A01F0C7
:10216000F001302902D1884A884911600378884AF1
:102170008849062B04BF037913F00F0F0FD1836832
:1021800003F0F004302C1FBF03F0F005402D03F0E6
:10219000F003502B03D10B68C3F342335360037831
:1021A000062B04BF037913F00F0F02BF037A03F06D
:1021B000F003302B04D1784B1C6824F080741C6031
:1021C0000378062B04BF037913F00F0F10D1836837
:1021D00003F0F004302C1FBF03F0F005402D03F096
:1021E000F003502B04D16D4B00241C605C60146024
:1021F0000478062C04BF037913F00F0F06D1037A7D
:1022000003F0F003302B04BF032393660278062A01
:1022100004BF027912F00F0F02BF027A02F0F0023F
:10222000302A08D15E4A05231360012494670025F3
:1022300095603F2353600278062A04BF027912F0AA
:102240000F0F02BF027A02F0F002502A23D1554B41
:10225000554A1C6814605D6855609C689460DD6830
:10226000D5601C6914615D6955619C691462DD6902
:1022700055621C6A94625D6AD5629C6A1463DD6A69
:1022800055631C6B14645D6B55649C6B9464DD6BCF
:10229000D5641B6C13650278062A04BF027912F01C
:1022A0000F0F10D1826802F0F003302B1FBF02F035
:1022B000F004402C02F0F002502A04D149693B4A54
:1022C00001F04F0111600178062904BF017911F076
:1022D0000F0F12D1806800F0F00130291FBF00F00D
:1022E000F002402A00F0F000502806D13048016882
:1022F000CA0744BF6FF0010101602E480268062A38
:1023000004BF4068062804D12B48016841F480616D
:1023100001602A49C86F40F47000C867BFF34F8F4F
:10232000BFF36F8F264A1068C3071ED5254B0124C3
:102330001C60254C20680028FCD015686D086D00D5
:10234000156020680028FCD000221A602068002850
:10235000FCD0BFF34F8F0A681C4802F4E0620243CE
:102360000A60BFF34F8F00BFFDE7024A02491160C8
:1023700030BD0000100000200090D003E00F00F0FE
:10238000240300104035014074C007400DF0ADBA81
:102390003805004044020010FCED00E00C01004054
:1023A000105600400404001020C50040E40E004018
:1023B00000040040300100103C1700400CED00E02C
:1023C0000C12001004E5014000E401400400FA058D
:1023D0000338FDD870470000800080008000FC1F9B
:1023E00040004000FF7F20001000F00F00080004B4
:1023F0006002800100020004000104020800E83FBE
:102400000102020202020802C83F0402070204029B
:1024100004020402F47F00000000F80F0808080816
:10242000F80F08080808F80F200222222422281298
:10243000280A2002FF7F00000000FC1F00000000AF
:1024400000000000FF7F8000800088088810842042
:1024500082408140A0004000400080008000FF7F5B
:10246000200020002000E00F20082008200810088D
:1024700010080808040502028000FE3F0220200028
:10248000FF7F10047802C0033C1C8000FF7FA00285
:1024900090048C188360800081B000224250405824
:1024A0000090009901B07047405800B10120C0B2BF
:1024B000704710B5144C4FF48C712046FFF7F4FFB1
:1024C000D8B14FF48C712046FFF7E6FF0C4AD17F5C
:1024D000FF2908D00123907F03FA01F1094B00285E
:1024E00014BF5960196000205077107202F1080083
:1024F00051681268BDE81040104710BD0000000090
:1025000014000020080500500030004030B501687C
:1025100084684218416802EB5103C9070BD54C444B
:1025200009E012F9011B12F8015B002904F8015BB4
:1025300005D5491CF9D19A42F3D10C3030BD491E62
:10254000F1D5F8E710B5074979441831064C7C44B9
:10255000163404E00A68081D114488470146A14268
:10256000F8D110BD2C000000380000004EF6885154
:10257000CEF20001086840F470000860BFF34F8F8E
:10258000BFF36F8F4FF00070E1EE100A704700004C
:102590007DFFFFFFBC0000001600000000000020CF
:1025A000FEE700000120C046002801D0FFF7CAFF67
:1025B000AFF300800020AFF30080FFF772FD00F062
:1025C00000F800F001B8FEE70746384600F002F8D0
:1025D000FBE7FEE72021090326311820ABBEF9E70F
:1025E000014880470148004719210000F1250000FB
:1025F000AFF30080FFF7BAFFFFF7D4FFFEE7FEE777
:10260000FEE7FEE7FEE7FEE7FEE7FEE7FEE7FEE7A2
:10261000FEE7FEE7FEE7FEE7FEE7FEE7FEE7FEE792
:10262000FEE7FEE7FEE7FEE7FEE7FEE7FEE7FEE782
:10263000FEE7FEE7FEE7FEE7FEE7FEE7FEE7FEE772
:10264000FEE7FEE7FEE7FEE7FEE7FEE7FEE7FEE762
:0B265000F20005FFFF0090D003DC004B
:04000005000025F1E1
:00000001FF
