:020000040000FA
:10000000D04F0020150200001D0200001F0200005A
:100010002102000023020000250200000000000071
:1000200000000000000000000000000027020000A7
:1000300029020000000000002B0200002D02000039
:100040002F0200002F0200009D1000002F02000070
:100050002F0200002F0200002F0200001D0C0000E4
:1000600075100000891000002F0200002F02000010
:100070002F0200002F0200002F0200002F020000BC
:100080002F0200002F0200002F0200002F020000AC
:100090002F0200002F0200002F0200002F0200009C
:1000A0002F0200002F0200002F0200002F0200008C
:1000B0002F0200002F0200000000000000000000DE
:1000C0002F0200002F0200002F0200002F0200006C
:1000D0002F0200002F0200002F020000000000008D
:1000E0000000000000000000000000000000000010
:1000F0000000000000000000000000000000000000
:1001000000000000000000000000000000000000EF
:1001100000000000000000000000000000000000DF
:1001200000000000000000000000000000000000CF
:1001300000000000000000000000000000000000BF
:1001400000000000000000000000000000000000AF
:10015000000000000000000000000000000000009F
:10016000000000000000000000000000000000008F
:10017000000000000000000000000000000000007F
:10018000000000000000000000000000000000006F
:10019000000000000000000000000000000000005F
:1001A000000000000000000000000000000000004F
:1001B000000000000000000000000000000000003F
:1001C000000000000000000000000000000000002F
:1001D000000000000000000000000000000000001F
:1001E000000000000000000000000000000000000F
:1001F00000000000000000000000000000000000FF
:10020000DFF80CD000F016FA004800478112000019
:10021000D04F00200648804706480047FEE7FEE72B
:10022000FEE7FEE7FEE7FEE7FEE7FEE7FEE7FEE7A6
:10023000650D0000010200002DE9FE4F804681EAB5
:100240000300C00F0C46009021F0004123F0004550
:10025000B8EB0200A94105D24046214690461C4613
:100260000B46024623F00040104347D0270DC7F34A
:100270000A00C3F30A510290401A019040286BDA39
:10028000C3F3130040F4801B0098924620B1002372
:10029000D2EB030A63EB0B0B01985946C0F1400205
:1002A000504600F011F906460D4650465946019A4F
:1002B00000F019F910EB08006141002487EA11529F
:1002C00084EAE7731A4340D0009A62B3019A012A84
:1002D0004FEA075215DC001B61EB02014FF00042B0
:1002E00002EA0752CDE90042001C41F58011324676
:1002F0002B4600F050F903B0BDE8F08F4046214690
:10030000F9E7001B61EB0201001C41F580130018A6
:100310005B412018A2F5001747EB030140EAD570B6
:10032000B6196D4111E06D084FEA360645EAC07511
:100330004FEA0752001B61EB0201001C41F58011DE
:1003400049084FEA30000019514132462B4603B0AC
:10035000BDE8F04F00F010B90098012240000023E2
:10036000D0EB020263EBE073009821464FEAE074A1
:10037000B8EB000061EB0401E9E783F000435BE7C1
:1003800081F0004158E72DE9FE4F81EA030404F0B3
:10039000004421F0004100944FF0000B23F0004393
:1003A00050EA01045ED052EA03045BD0C3F30A545E
:1003B000C1F30A552C44A4F2F3340194A0FB025477
:1003C000C1F3130141F48011C3F3130343F4801309
:1003D00001FB024400FB034E840A970A44EA81545D
:1003E00047EA8357A4FB076802958D0A05FB07853A
:1003F0004FEA932C04FB0C542705029D4FEA065844
:1004000047EA1637B5EB08056EEB070C870E920E20
:1004100047EA811742EA8312A7FB0201B6EB0B0100
:1004200064EB00042B0D43EA0C335E1844EB1C50C4
:10043000DA465146E7FB0201C5F313044FEA0B33DA
:1004400043EA14534FEA0432019C43EA0603A4F141
:100450000C040294009CCDE900B400F09CF803B0B9
:10046000BDE8F08F00200146F9E700F0004230F0CF
:1004700000400AD0C10D01F56071C0F3160042EAD8
:100480000151C208400711437047002001467047E0
:1004900001F0004330B421F0004150EA010206D0DF
:1004A0000A0DA2F56072C1F31301002A02DC30BC10
:1004B00000207047440F44EAC104C100E01830BC7A
:1004C00000EBC25000F021B8202A04DB203A00FAE9
:1004D00002F1002070479140C2F1200320FA03F39B
:1004E000194390407047202A06DBCB17203A41FA87
:1004F00002F043EAE07306E041FA02F3D040C2F1B1
:10050000200291400843194670470029A8BF704750
:10051000401C490008BF20F00100704710B4B0FA39
:1005200080FC00FA0CF050EA010404BF10BC7047D4
:1005300049B1CCF1200421FA04F411FA0CF118BFEE
:10054000012121430843A3EB0C01CB1D4FEA0061BD
:100550004FEA102042BF002010BC704700EBC35090
:1005600010440029A4BF10BC7047401C490008BFBC
:1005700020F0010010BC704710B5141E73F1000488
:1005800008DA401C41F1000192185B411A4301D185
:1005900020F0010010BD2DE9F04D92469B4611B1AF
:1005A000B1FA81F202E0B0FA80F220329046FFF711
:1005B0008BFF04460F4640EA0A0041EA0B0153460E
:1005C0005A46084313D0114653EA010019D0C8F126
:1005D0004002504600F040F805460E465046594647
:1005E0004246FFF771FF084305D0012004E0204692
:1005F0003946BDE8F08D0020054346EAE0762C43FD
:1006000037430A986305E40AA0EB08000022FD0ABC
:1006100044EA47540A3002D500200146E9E70105C3
:1006200010196941DDE9084500196941BDE8F04D3F
:10063000A2E70000064C074D06E0E06840F0010329
:1006400094E8070098471034AC42F6D3FFF7DCFD7E
:10065000D8190000F8190000202A04DB203A21FAFA
:1006600002F00021704721FA02F3D040C2F12002CB
:1006700091400843194670472DE9F0472DED028B54
:100680009FED7C8B10EE100AFFF7EFFE9FED7B1BBA
:1006900053EC112BFFF771FE53EC182BFFF773FE91
:1006A000FFF7F6FE774D00EE100A4FF47A7185EDF4
:1006B0000C0ABDEEC00A10EE100A90FBF1F20A21FE
:1006C00092FBF1F301FB1324642290FBF2F292FB04
:1006D000F1F390FBF1F001FB132790FBF1F201FB2A
:1006E000120621463034303630374FF0A04006290C
:1006F00004DB4021C0F80815072003E08021C0F882
:100700000815062000F031FEA868A846012875D11A
:10071000802000F07BF90A2000F0EAFDDFF8649108
:10072000002509F1460900BF19F8050000F09EF9FF
:10073000012000F0DDFD6D1C0A2DF5DBD8F80C0062
:10074000062851D2DFE800F0500313233141DFF8CF
:100750003481002508F1340818F8050000F086F906
:10076000012000F0C5FD6D1C052DF5DB3CE0DFF838
:100770001481002508F13A0818F8050000F076F910
:10078000012000F0B5FD6D1C052DF5DB2CE0DFF838
:10079000F480002518F8050000F068F9012000F049
:1007A000A7FD6D1C022DF5DB1EE0DFF8D8800025CB
:1007B00008F1030818F8050000F058F9012000F0CE
:1007C00097FD6D1C022DF5DB0EE0DFF8B8800025EB
:1007D00008F1140818F8050000F048F9012000F0AD
:1007E00087FD6D1C032DF5DBC02000F00FF90A20FA
:1007F00000F07EFD302C02DDE0B201E035E030207B
:1008000000F034F90A2000F073FD2E2000F02EF9DC
:100810000A2000F06DFD302F01DDF8B200E030203D
:1008200000F024F90A2000F063FD302E01DDF0B263
:1008300000E0302000F01AF90A2000F059FD3020C5
:1008400000F014F90A2000F053FD752000F00EF9B5
:100850000A2000F04DFD412000F008F9BDEC028BAC
:100860000A20BDE8F04700F043BDBDEC028BBDE8B7
:10087000F087000000000000006CAB4033333333DE
:1008800033331840000000200A490B4A002091ED44
:10089000060A00BF02EB8003401CD3ED000AC82803
:1008A00030EE800AF6DBDFED050A80EE201A81EDDE
:1008B000061A704700000020800000200000484316
:1008C0000D4910B59FED0B0A0C4A81ED060A002078
:1008D0004FF4FA6302EB8004401CD4ED000A984206
:1008E00030EE800AF6DBDFED060A80EE201A81ED9D
:1008F000061A10BD0000000000000020800000204B
:100900000000FA440448F2EE040A90ED060A80EE74
:10091000201A80ED061A7047000000200E4910B51D
:100920009FED0C0A0D4B81ED060A002040F6B8320F
:1009300003EB8004401CD4ED000A904230EE800AA4
:10094000F6DB9FED071AC0EE010AC1ED060AC1ED04
:100950000A0A10BD000000000000002080000020F6
:1009600000803B450D4910B59FED0B0A0C4A81ED07
:10097000060A00204FF4167302EB8004401CD4EDED
:10098000000A984230EE800AF6DBDFED060A80EEC0
:10099000201A81ED061A10BD0000000000000020A2
:1009A000800000200000164410B500F08FF80C20E5
:1009B00000F020FD382000F029F80C2000F01AFD8E
:1009C000382000F023F80C2000F014FD382000F04F
:1009D0001DF80C2000F00EFD0C2000F017F80C2084
:1009E00000F008FD062000F011F80C2000F002FDD8
:1009F000012000F00BF80C2000F0FCFC802000F03F
:100A000005F8BDE810400C2000F0F4BC70B50546B8
:100A10000021122000F0B8FC0021132000F0B4FCEB
:100A20000C2000F0E7FC104E002400BF05F001018F
:100A300036F8140000F0A8FC6D08641C072CF5DDE6
:100A40000C2000F0D7FC0121142000F09DFC0C20AC
:100A500000F0D0FC0021142000F096FCBDE87040AE
:100A60000C2000F0C7BC00006C00002070B50546EB
:100A700000240121122000F087FC0021132000F047
:100A800083FC0C2000F0B6FC0F4E00BF05F0010106
:100A900036F8140000F078FC6D08641C072CF5DDB6
:100AA0000C2000F0A7FC0121142000F06DFC0C20AC
:100AB00000F0A0FC0021142000F066FCBDE87040AE
:100AC0000C2000F097BC00006C00002010B5152031
:100AD00000F043FC1F2000F040FC1E2000F03DFC15
:100AE0001D2000F03AFC1C2000F037FC1B2000F019
:100AF00034FC1A2000F031FC192000F02EFC1320E9
:100B000000F02BFC122000F028FCBDE8104014205F
:100B100000F023BC2DE9F04110EE100AFFF7A5FC10
:100B20009FED381B53EC112BFFF72DFC9FED371B6E
:100B300053EC112BFFF727FCFFF7AAFC00EE100A7D
:100B4000DFED340A642120EE200AF0EE000A20EEE8
:100B5000200ABDEEC00A10EE100A90FBF1F20A2145
:100B600092FBF1F301FB132690FBF1F292FBF1F300
:100B700001FB132590FBF1F201FB120726483035EB
:100B800030368068303702283AD18020FFF73EFFA8
:100B90000A2000F0ADFBDFF88080002408F1510846
:100BA00018F80400FFF762FF012000F0A1FB641CAD
:100BB0000F2CF5DBC020FFF729FF0A2000F098FB7F
:100BC000F0B2FFF753FF0A2000F092FB2E20FFF750
:100BD0004DFF0A2000F08CFBE8B2FFF747FF0A2028
:100BE00000F086FBF8B2FFF741FF0A2000F080FB1F
:100BF0005620FFF73BFFBDE8F0410A2000F078BB2C
:100C0000BDE8F081CDCCCCCCCCCC0C4000000000B9
:100C10000000503F0000C842000000202DE9FE43C4
:100C20004FF48278404600F0CDFB4C4F00254C4CF1
:100C3000012600B3404600F0CDFB94F82E0010B121
:100C400094F82F10D1B18DF800506168019121897D
:100C5000ADF80810E26832B1218B618362602181B6
:100C6000E56010B102E0257400E03E60216868464E
:100C7000884784F82F5094F82E0060B34FF48077A3
:100C8000384600F09FFB30B3384600F0A3FB628B80
:100C900094F82D108A420AD9A2EB010080B2608339
:100CA0002289A2EB0000626802EB400005E007D158
:100CB000E06828B184F82F60658300F071FB04E0E0
:100CC0008A4202D184F82F606583404600F082FB9F
:100CD0002248001D06604FF48877384600F072FB0A
:100CE00048B1384600F076FB257402208DF80000EC
:100CF0002168684688474FF48A77384600F062FBDF
:100D000028B1384600F066FB2574BDE8FE834FF03D
:100D100000484FF48C7967691DE000BFB7FA87F08F
:100D200028FA00F109EB80058F43284600F04AFBC2
:100D300088B1284600F04EFBA5F58C75E8088DF8C3
:100D4000040045F38000401C8DF800608DF805001C
:100D5000216868468847002FE0D1D6E70070004040
:100D6000882F0020F0B5B2480023021D0178101D25
:100D700001254FF0805406290BD11678360708D18B
:100D80000678C6F30316032E06D0042E04D0052ED3
:100D900002D0062907D00EE0B4F82463A54FC6F3AD
:100DA00004263E6002E01678360704D10678C6F3C2
:100DB0000316032E02D0062904D00FE09F4F9E4E4B
:100DC0007E670EE01678360708D10678C6F303165C
:100DD000032E06D0042E04D0052E02D0062907D0FB
:100DE0000EE0D4F84462964FC6F342363E6002E00D
:100DF0001678360704D10678C6F30316032E02D000
:100E0000062906D011E08F4E376827F080773760CB
:100E10000EE01678360708D10678C6F30316032EBF
:100E200006D0042E04D0052E02D006290AD011E0E7
:100E30004FF08046C6F80C31C6F81031804E361F90
:100E4000336002E01678360704D10678C6F303163D
:100E5000032E02D0062905D00CE0794F0326643713
:100E60003E600AE01678360704D10678C6F303160A
:100E7000032E02D006290DD014E0734F05263E60E4
:100E8000714E78363560704E083633603F263F1D10
:100E90003E6002E01678360704D10678C6F30316E2
:100EA000052E02D0062957D062E0684E3668684F9A
:100EB0003E60664E361D36683F1D3E60634E083606
:100EC00036683F1D3E60614E0C3636683F1D3E6001
:100ED0005E4E103636683F1D3E605C4E14363668F6
:100EE0003F1D3E60594E18363668594F20373E60D8
:100EF000564E1C3636683F1D3E60544E20363668CE
:100F00003F1D3E60514E243636683F1D3E604F4EB9
:100F1000283636683F1D3E604C4E2C3636683F1DE5
:100F20003E604A4E30363668494F40373E60474E45
:100F3000343636683F1D3E60444E383636683F1DB5
:100F40003E60424E3C3636683F1D3E603F4E403666
:100F500036683F1D3E6002E01678360708D10678F5
:100F6000C6F30316032E06D0042E04D0052E02D09D
:100F7000062907D019E0D4F85812364A01F04F017B
:100F8000116002E0117809070FD10078C0F3031057
:100F9000032803D0042801D0052806D12E48016873
:100FA000C90702D06FF001010160D4F830010628B2
:100FB00008D1D4F83401062804D12848016841F446
:100FC000806101601F487438016841F4700101605C
:100FD000BFF34F8FBFF36F8F4FF01021D1F80C028A
:100FE000C00720D01E4A15601E480468002CFCD0A3
:100FF000D1F80C4224F00104C1F80C420168002928
:10100000FCD0136001680029FCD0BFF34F8F0D485E
:10101000F0380168144A01F4E06111430160BFF344
:101020004F8F00BFFDE7124910480860F0BD000077
:10103000E00F00F0403501400DF0ADBA00C00740B0
:101040003C050040FCED00E0105600400404001098
:1010500020C50040E40E0040000400403C17004062
:1010600004E5014000E401400400FA050090D003CB
:101070007C00002004220249024800F089B80000E8
:10108000B82F00200080004004220249024800F0EE
:101090007FB80000C42F0020009000400148006885
:1010A000004700006400002002E008C8121F08C1C9
:1010B000002AFAD170477047002001E001C1121FD9
:1010C000002AFBD17047000072B609480068C007CB
:1010D00000D000BEBFF34F8F0548E4380168054AD1
:1010E00001F4E06111430160BFF34F8F00BFFDE7E2
:1010F000F0ED00E00400FA050EB500210091CDE905
:1011000001106A4644F20100FFF7DEFF0EBD000049
:1011100010B5092000F030F91C4CA0B90A2000F0ED
:10112000E7F8092000F028F940B9A068401EA06047
:101130000120FFF76BFC012000F0DAF8092000F035
:101140001BF90028FAD00A2000F016F9A0B90A20ED
:1011500000F0CEF80A2000F00FF940B9A068401C5A
:10116000A0600120FFF752FC012000F0C1F80A2026
:1011700000F002F90028FAD0A068022801DD012061
:1011800002E0012801DA0220A06010BD000000206A
:101190002DE9F041174688460646002417E000BFB7
:1011A0004FF4A07000EB84054FF480307159A040DB
:1011B00059B1D6F80413014207D02946304600F051
:1011C00013F9D8E9002128469047641CE4B2BC42D8
:1011D000E6D3BDE8F08110B50321092000F0AAF89C
:1011E00003210A2000F0A6F80321082000F0A2F84D
:1011F0000321BDE810400B2000F09CB83EB5164915
:10120000164AD1E90801CDE90101134801A91830B6
:1012100000F048FA08B1FFF76FFF0F481830006878
:10122000D0F810054FF47A54C44001250A482B46E3
:10123000224600211830009500F01EFA06480223CD
:10124000224601211830009500F016FA02481830A5
:1012500000F004FA3EBD00008019000039180000BB
:1012600010B5062000F06FF8072000F06CF806209B
:1012700000F07BF8BDE81040072000F076B80000D1
:101280000A2000F035F8FFF7EBFFFFF7A4FF00F0AE
:101290009DFAFFF789FB0120FFF7B8FB642000F0FF
:1012A00027F8FFF7ABFF114CE068062812D2DFE801
:1012B00000F0110306090C0FFFF7E6FA0AE0FFF74A
:1012C00051FB07E0FFF7FCFA04E0FFF727FB01E022
:1012D000FFF718FB642000F00BF894ED060AFFF707
:1012E000CBF994ED070AFFF715FCDDE700000020BD
:1012F0002DE9F041040007D0044E4FF47A47751CE5
:101300003846A847641EFAD1BDE8F0819019000064
:1013100070B541EA4201DDE904564FF0A04441EACC
:10132000830141EA052104EB800041EA0641C0F84F
:10133000001770BD1CB500220B46009211460192A9
:10134000FFF7E6FF1CBD1CB5002100910B460122F2
:1013500001911146FFF7DCFF1CBD4FF0A04202EBEC
:1013600080000321C0F8001770474FF0A042012110
:101370008140C2F80C1570474FF0A041D1F810150C
:10138000C14001F00100704701224FF0A0438240AC
:1013900011B1C3F808257047C3F80C257047000049
:1013A000024A1060101D0160704700002C7600405A
:1013B000030103481844C0F81425C0F810157047FD
:1013C0000070004002494058002800D001207047BA
:1013D00000700040034908B508440022026000681C
:1013E000009008BD0070004008B5002242504058EF
:1013F000009008BD002802D00149800108477047CD
:10140000D11900002DE9F041254C064612200D4669
:10141000C4F808032348017C022918D0027C014645
:101420004FF4807891F82E10012A12D00222C4F8CD
:10143000042301270774466005810022C26021B39E
:10144000458390F82D103046FFF7AAFF25E01220C3
:1014500002E0C2682AB10220C4F804031120BDE8EA
:10146000F081C660058361B947463846FFF7AAFF99
:101470000028FAD03846FFF7ADFF29463046FFF77F
:101480008FFF0220C4F8040307E029463046FFF727
:1014900087FF4046FFF79EFF27600020DFE7000040
:1014A00000700040882F002070B505462A480C4681
:1014B000017C09B1112070BD2179284E09B10129A3
:1014C00001D10021316000EB45010A7F1AB910F803
:1014D0002D2F521C0270E0790877207A4877217806
:1014E0006278302301F0030103EA02121143A2786B
:1014F0004FF4E06303EA02221143E2784FF4805391
:1015000003EA0232114322794FF4E02303EA024254
:10151000114362794FF4801303EA02521143A27916
:101520001B0103EA02620E4B2846114303EB001233
:10153000C2F81815227AE179FFF73AFF227AE179A9
:101540002846FFF735FF207908B1012801D1012095
:101550003060002070BD0000882F00200075004022
:10156000007000402DE9F0411E4C054694F82C0017
:1015700010B10820BDE8F08144F8101B1A49287802
:101580000860091D68780860E878A0770127277748
:101590000020207060776060144EE0776FF00040AC
:1015A000C6F808034FF48270FFF714FFB015FFF779
:1015B00011FFA8780E49400181F800048020C91F5E
:1015C000C1F88002C1F800010220C6F80403A07F20
:1015D00010B10120C6F804030348F038076000206A
:1015E000C8E70000882F0020F07500400070004020
:1015F00007E000E0084900200A7C012A01D0082009
:10160000704791F82E30054A01210BB111607047E7
:10161000024A121DFAE70000882F002000700040E7
:101620002DE9F04106460D464FF480340068174618
:10163000AC404BB14FF4A07101EB8501FFF7D4FE34
:101640003068C0F8044301E0C0F80843306800EB9C
:101650008500C0F84075BDE8F081000001680122F6
:101660000A600079034A00EB400002EB800002218F
:1016700001727047B82F0020F0B40468049E40F255
:101680000115D4F800728D40AF43C4F800720468AD
:10169000D4F800521D43C4F800523346F0BCFFF7A3
:1016A000BFBF00002DE9F04104460E4600792C49E9
:1016B00000EB400001EB8007387A10B10820BDE84C
:1016C000F0813A60706800254FF4A078786006E0F9
:1016D00008EB85012068FFF787FE6D1CEDB260798D
:1016E000A842F5D82068F178000B40B200284FEAF4
:1016F000411106DA00F00F0000F1E02080F8141D1F
:1017000003E000F1E02080F8001420680122000BC3
:1017100040B200F01F0302FA03F14009800000F11B
:10172000E020C0F88012C0F8001120687178D0F86D
:10173000043561F30103C0F804352068B178D0F8AE
:10174000083561F30103C0F8083520683178D0F816
:10175000103561F30303C0F810353A720020AEE78C
:10176000B82F002010B50446007800282AD10321A4
:101770006068FFF747FE08B1FFF7BEFC1248D4F8D7
:1017800004300021D0ED080A90ED090A33F9112048
:1017900011B102290ED107E001EE102A0121B8EEA5
:1017A000C11A71EE200AF1E701EE102AB8EEC11A53
:1017B00031EE000A491C0329E8DBC0ED080A80ED80
:1017C000090AC26210BD00000000002000B51748E1
:1017D00089B00DF10C0C0EC88DE80E000EC88CE817
:1017E0000E0007C806AB83E80700104810492838E8
:1017F000FFF7B8FE08B1FFF77FFC69460020FFF74E
:1018000053FE03A90120FFF74FFE06A90320FFF7AF
:101810004BFE08B1FFF770FC03210648FFF7F2FD0D
:10182000002801D0FFF768FC09B000BDA81900002E
:10183000651700004000002010B5B0F5A07F08D06B
:10184000B0F5A27F4BD1FFF763FCBDE8104000F07C
:101850004FB8FFF7CFFE224940F6B73001EB8002C8
:10186000401E12ED010A002882ED000AF6DC1D4C34
:1018700094ED080A81ED000A94ED090A84ED070A47
:101880009FED190A84ED080A84ED090A2069401CBD
:10189000A0F530612061B83921D1FFF73FF8134935
:1018A000092000BF01EB8002401E12ED010A002852
:1018B00082ED000AF6DC94ED0A0A002081ED000AB0
:1018C00001EB8002D4ED060A92ED000A401C0A28C2
:1018D00030EE200A84ED060AF2DB0020206110BD04
:1018E000800000200000002000000000602F002089
:1018F00010B50820FFF740FD1D4CC8B90A20FFF7BE
:10190000F7FC0820FFF738FD68B9E068401EE0608A
:101910000120FFF77BF80120FFF7EAFCE0680128CF
:1019200001DA0520E0600820FFF726FD0028FAD044
:101930000B20FFF721FD002819D10A20FFF7D8FC62
:101940000B20FFF719FD68B9E068401CE06001203A
:10195000FFF75CF80120FFF7CBFCE068052801DD0C
:101960000120E0600B20FFF707FD0028FAD010BD32
:101970000000002000000000000000000000000047
:10198000010007000000000000000000000000004F
:101990000338FDD8704700000080004000040000BC
:1019A0000900000700000000000000000200000124
:1019B0000000000000000000020000020000000023
:1019C0000000000002000004000000000000000011
:1019D0000338FDD870470000F8190000000000200F
:1019E00080000000A8100000781A0000800000208D
:1019F000504F0000B8100000327300337300000035
:101A000001000000010000000000000033307300FE
:101A100000000000000000000000000000000000C6
:101A20000000000000000000000000003230306DB7
:101A300073003630306D7300000000000000312E5E
:101A400043757272656E745F00322E4275747465F0
:101A500072795F506F77657200000000000000002F
:101A60000000000015001F001E001D001C001B00D0
:081A70001A0019000090D003D8
:0400000500000201F4
:00000001FF
